{
  "contractName": "MoodDiary",
  "abi": [
    {
      "inputs": [
        {
          "internalType": "string",
          "name": "_mood",
          "type": "string"
        }
      ],
      "name": "setMood",
      "outputs": [],
      "stateMutability": "nonpayable",
      "type": "function"
    },
    {
      "inputs": [],
      "name": "getMood",
      "outputs": [
        {
          "internalType": "string",
          "name": "",
          "type": "string"
        }
      ],
      "stateMutability": "view",
      "type": "function",
      "constant": true
    }
  ],
  "bytecode": "0x60c0604052601060809081526f139bc81b5bdbd9081c9958dbdc99195960821b60a05260009061002f90826100e1565b5034801561003c57600080fd5b506101a0565b634e487b7160e01b600052604160045260246000fd5b600181811c9082168061006c57607f821691505b60208210810361008c57634e487b7160e01b600052602260045260246000fd5b50919050565b601f8211156100dc57600081815260208120601f850160051c810160208610156100b95750805b601f850160051c820191505b818110156100d8578281556001016100c5565b5050505b505050565b81516001600160401b038111156100fa576100fa610042565b61010e816101088454610058565b84610092565b602080601f831160018114610143576000841561012b5750858301515b600019600386901b1c1916600185901b1785556100d8565b600085815260208120601f198616915b8281101561017257888601518255948401946001909101908401610153565b50858210156101905787850151600019600388901b60f8161c191681555b5050505050600190811b01905550565b6103a4806101af6000396000f3fe608060405234801561001057600080fd5b50600436106100365760003560e01c80635f3cbff51461003b5780639d0c139714610050575b600080fd5b61004e610049366004610126565b61006e565b005b61005861007e565b60405161006591906101d7565b60405180910390f35b600061007a82826102ae565b5050565b60606000805461008d90610225565b80601f01602080910402602001604051908101604052809291908181526020018280546100b990610225565b80156101065780601f106100db57610100808354040283529160200191610106565b820191906000526020600020905b8154815290600101906020018083116100e957829003601f168201915b5050505050905090565b634e487b7160e01b600052604160045260246000fd5b60006020828403121561013857600080fd5b813567ffffffffffffffff8082111561015057600080fd5b818401915084601f83011261016457600080fd5b81358181111561017657610176610110565b604051601f8201601f19908116603f0116810190838211818310171561019e5761019e610110565b816040528281528760208487010111156101b757600080fd5b826020860160208301376000928101602001929092525095945050505050565b600060208083528351808285015260005b81811015610204578581018301518582016040015282016101e8565b506000604082860101526040601f19601f8301168501019250505092915050565b600181811c9082168061023957607f821691505b60208210810361025957634e487b7160e01b600052602260045260246000fd5b50919050565b601f8211156102a957600081815260208120601f850160051c810160208610156102865750805b601f850160051c820191505b818110156102a557828155600101610292565b5050505b505050565b815167ffffffffffffffff8111156102c8576102c8610110565b6102dc816102d68454610225565b8461025f565b602080601f83116001811461031157600084156102f95750858301515b600019600386901b1c1916600185901b1785556102a5565b600085815260208120601f198616915b8281101561034057888601518255948401946001909101908401610321565b508582101561035e5787850151600019600388901b60f8161c191681555b5050505050600190811b0190555056fea2646970667358221220c5c1b9b7da854bb8cd86f174e235b597b92793bd2f6e125e83c704f87e68ea1364736f6c63430008120033",
  "immutableReferences": {},
  "source": "// SPDX-License-Identifier: MIT\r\npragma solidity ^0.8.1;\r\n\r\ncontract MoodDiary {\r\n    // This is the contract's body, here you'll specify the logic for this contract.\r\n    string mood = \"No mood recorded\";\r\n\r\n    //create a function that writes a mood to the smart contract\r\n    function setMood(string memory _mood) public {\r\n        mood = _mood;\r\n    }\r\n\r\n    //create a function that reads the mood from the smart contract\r\n    function getMood() public view returns (string memory) {\r\n        return mood;\r\n    }\r\n}",
  "sourcePath": "C:\\Users\\Rupesh\\Desktop\\working folder\\First dApp\\backend\\contracts\\mood.sol",
  "compiler": {
    "name": "solc",
    "version": "0.8.18+commit.87f61d96.Emscripten.clang"
  },
  "schemaVersion": "3.4.13",
  "updatedAt": "2023-03-13T11:46:36.720Z",
  "networkType": "ethereum",
  "devdoc": {
    "kind": "dev",
    "methods": {},
    "version": 1
  },
  "userdoc": {
    "kind": "user",
    "methods": {},
    "version": 1
  }
}